:020000040800F2
:10000000D81A0020AD0100088B1D0008B11B0008A4
:10001000891D00084F0300087B3400080000000021
:10002000000000000000000000000000C11E0008E9
:100030008503000800000000BF1E0008C31E000862
:10004000C7010008C7010008C7010008C701000870
:10005000C7010008C7010008C7010008C701000860
:10006000C7010008C7010008C7010008C701000850
:10007000C7010008C7010008C7010008C701000840
:10008000C7010008C7010008C70100080000000000
:10009000000000000000000000000000C701000890
:1000A000C7010008C7010008C7010008C701000810
:1000B000C7010008C7010008C7010008C701000800
:1000C000C7010008C7010008C7010008C7010008F0
:1000D000C7010008C7010008C701000800000000B0
:1000E000C7010008C7010008C701000800000000A0
:1000F000000000000000000000000000C701000830
:1001000000000000C7010008C7010008C70100087F
:1001100000000000000000000000000000000000DF
:10012000C7010008C7010008C7010008C70100088F
:10013000C7010008000000000000000000000000EF
:100140000000000000000000000000008D1D0008FD
:10015000C7010008C7010008C7010008C70100085F
:10016000C7010008C70100080000000000000000EF
:10017000000000000000000000000000000000007F
:1001800000000000C701000800000000000000009F
:10019000C7010008C7010008DFF80CD000F09AF88A
:1001A00000480047D5370008D81A00200648804785
:1001B00006480047FEE7FEE7FEE7FEE7FEE7FEE74C
:1001C000FEE7FEE7FEE7FEE7791F00089901000859
:1001D0002DE9F05F0546002092469B46884606467C
:1001E000814640241BE0284641464746224600F00F
:1001F00060F853465A46C01A914110D3114618462A
:10020000224600F047F82D1A67EB01084F462246B8
:100210000120002100F03EF817EB00094E41201E9E
:10022000A4F10104DFDC484631462A464346BDE8D6
:10023000F09F40EA01039B0703D009E008C9121FA1
:1002400008C0042AFAD203E011F8013B00F8013B90
:10025000521EF9D27047D2B201E000F8012B491EBC
:10026000FBD270470022F6E710B513460A46044653
:100270001946FFF7F0FF204610BD30B504460020B8
:10028000034600E05B1C934203D2E05CCD5C401B64
:10029000F8D030BD202A04DB203A00FA02F1002019
:1002A00070479140C2F1200320FA03F319439040B4
:1002B0007047202A04DB203A21FA02F0002170471F
:1002C00021FA02F3D040C2F12002914008431946BE
:1002D00070470000064C074D06E0E06840F001035F
:1002E00094E8070098471034AC42F6D3FFF758FF64
:1002F000103D0008303D000870B58C1810F8015B07
:1003000015F0070301D110F8013B2A1106D110F8AE
:10031000012B03E010F8016B01F8016B5B1EF9D1B2
:100320002B0705D40023521E0DD401F8013BFAE738
:1003300010F8013BCB1A921C03E013F8015B01F8A3
:10034000015B521EF9D5A142D8D3002070BDFEE753
:1003500000207047002070470748084A0021D0F865
:100360009002402903D0435C53540131F9E704481B
:100370000121017000207047080400208401002042
:100380008001002070477047DA4A0329136823F47C
:10039000407313604FF4407338BF0B021168194368
:1003A0001160116821F0F8011160116841EAC00084
:1003B00040F002001060106840F480301060704718
:1003C0001348016889050FD5016821F400710160A7
:1003D000016841F400610160016821F4006101607D
:1003E000016841F400710160016849050FD5016899
:1003F00021F480610160016841F48051016001686D
:1004000021F480510160016841F48061016070470E
:10041000003C0240B7490A6822F440720A600A6848
:1004200042F004020A600A6842EA002040F4803088
:1004300008607047AF4A136823F440731360136871
:100440001360136843F0010313600170704700BF2D
:1004500010B5A8490C6824F440740C600C6844F48E
:1004600040740C600C6844F001040C60026043604E
:1004700010BD00BF9F4A136823F4407313601368D4
:1004800043F480731360136843F001031360018029
:10049000704700BF974A136823F4407313601368D2
:1004A00043F400731360136843F0010313600160A9
:1004B000704700BF32480168C90606D58C49CA6931
:1004C00042F01002CA61102101600168890606D558
:1004D0008749CA6942F00802CA61202101600168A7
:1004E000490606D58249CA6942F00402CA61402120
:1004F00001600168090606D57D49CA6942F0020219
:10050000CA61802101600168C90507D57849CA69B7
:1005100042F00102CA614FF48071016001688907ED
:1005200006D57349CA6942F02002CA6102210160FE
:10053000704700BFF8B504466D480021104EC161F8
:1005400000F038FA0546671C3068C00309D5002F53
:10055000FAD024B100F02EFA401BA042F4D90320B7
:10056000F8BD3068C0071CBF01203060306810F44F
:10057000F97F04BF0020F8BDFFF79CFF0120F8BD04
:100580000C3C024080B509484FF0FF310022016168
:1005900002614161426101600260416042608160CC
:1005A000826000F04FFA002080BD00BF103802408A
:1005B000B0B5044600F0FEF905460548611C007818
:1005C00018BF044400F0F6F9401BA042FAD3B0BDB6
:1005D000200000202DE9F843DFF81481054698F843
:1005E0001800012801D1022638E00120894688F848
:1005F000180001F000FC064668BB4FF0FF303D4C90
:10060000C9F80000286801280AD1287CFFF702FFFA
:1006100001F0F1FB0646206820F00400206018E09D
:10062000A8680746E968084487420ED2297C384604
:10063000FFF7AAFE01F0DFFB0646206820F0FA0073
:10064000206026B9A8680137ECE7002601E0C9F868
:100650000070FFF7B5FE002088F818003046BDE8AE
:10066000F88300BF2348016841F000410160002089
:10067000704700BF2DE9F041DFF87480074698F815
:100680001800012804BF0220BDE8F08101201E46A9
:1006900014460D4688F818004CF25030FFF74AFF18
:1006A00008BB022F07D0012F0AD077B9E1B2284644
:1006B000FFF7C0FE0EE028462146FFF7EBFE09E0FB
:1006C000A1B22846FFF7D6FE04E02846224633466C
:1006D000FFF7BEFE4CF25030FFF72CFF05490A68C9
:1006E00022F001020A60002188F81810BDE8F081AC
:1006F000AC0A0020103C02400648C168B1F1FF3F3F
:10070000C4BF002070470449016004490160C0680B
:10071000C00F7047043C024023016745AB89EFCD11
:100720002DE9F04F904A4FF0070A4FF000094FF0C3
:10073000010C4FF00F0E4FF0000890428B4A08BF9B
:100740004FF0040A02444FEAB223042B38BF4FEAA9
:10075000B22A874A0027A2F57E7B102F08BFBDE88A
:10076000F08F0CFA07F20A4240D009F00C0CBD08D9
:100770000EFA0CF45BF825E00AFA0CF30EEA040614
:100780009E4212D15BF82530A343794C4BF82530BB
:10079000236893432360636893436360A368934330
:1007A000A360744C236893432360032304686FF0B1
:1007B00003054FF00F0ED2434FF0010C03FA08F37C
:1007C00005EA57059C430544046009F01C042E6AA1
:1007D0000EFA04F426EA04042C6284689C438460C4
:1007E000446822404260C2689A43C26009F1040929
:1007F00008F102080137B0E72DE9F84F5A4A4FF0E7
:10080000070A4FF0010B4FF00F094FF000084FF0AF
:10081000000E9042554A08BF4FF0040A02444FEAC6
:10082000B223042B38BF4FEAB22A0022102A08BF95
:10083000BDE8F88F0F680BFA02F6374200F08D80A2
:100840004F6847F01004122C12D16FF003030EF022
:100850001C0403EA520309FA04FC03441F6A27EA52
:100860000C0C0F6907FA04F444EA0C041C624F688C
:100870000324056807F0030304FA08F403FA08F3F5
:10088000A5436FEA040C2B43122F036012D80BFA16
:1008900007F313F0061F0DD08368CC6803EA0C033E
:1008A00004FA08F4234383603B0944689340B4434B
:1008B00023434360C3688C6803EA0C0304FA08F41A
:1008C0002343C360FB0048D500232B4C284F22F064
:1008D000030500932368BC463D4443F480432360F2
:1008E000236803F4804300930EF00C03009F09FA81
:1008F00003F40AFA03F3214FB946EF5927EA040437
:10090000234345F809304FF00F09DCF800304D68FB
:1009100043EA0604EF0358BF23EA0604CCF800407C
:10092000AF03DCF8043043EA060458BF23EA0604A8
:10093000CCF80440EF02DCF808300E4F43EA06041E
:1009400058BF23EA0604CCF80840AD023B6843EAEE
:10095000060458BF23EA06043C6008F102080EF1C1
:10096000040E013262E700BF001002400000FEBF2B
:10097000003C01400C3C01404438024008FCFFFFB1
:100980000069084018BF0120704742690A408A4246
:1009900008BF090481617047002A08BF090481610A
:1009A00070470000024800686FF31F30704700BFB7
:1009B000002004E005480068704700BF1F48034955
:1009C00000780A6810440860704700BFD00E00200D
:1009D00080B50B48016841F400710160016841F481
:1009E00080610160016841F480710160032000F0C2
:1009F0007FF8002000F006F800F026F8002080BD07
:100A0000003C024070B50D4E04464FF47A713078C8
:100A1000B1FBF0F00A490968B1FBF0F001F0B6F85B
:100A200001250F2C08D838B94FF0FF30214600229D
:100A3000002500F041F87460284670BD20000020B9
:100A4000580000207047000082B000200B49019040
:100A50004A6842F480424A604A6802F48042019245
:100A6000019A0090086840F080500860086800F023
:100A700080500090009802B0704700BF403802409C
:100A800000280AD4734601F0C6F99E46034A42F88C
:100A90002010BFF34F8FBFF36F8F704780E100E0EE
:100AA000002806D4734601F0B6F99E46014A42F882
:100AB0002010704700E100E070B5134B4FF0FF3598
:100AC0001B68C3F30223DC1E83F0070338BF002436
:100AD00005FA04F6B243042B28BF042305FA03F3F6
:100AE0009943A1401143BDE8704002F0C7BC00BF6C
:100AF00005494FF6FF030A681A4060F30A220348CB
:100B000010430860704700BF0CED00E00000FA05DC
:100B100002F0C6FC70470068416200207047B0B523
:100B20000068436AB1B1846A013903EB14430024BD
:100B3000E5B2A94207D900EB85050134D5F8045187
:100B400003EB1543F4E700EB810043EA0241C0F8F0
:100B5000041102E043EA024181620020B0BDD0F8F6
:100B6000040401F00DBDC1EBC10200EB8202D0F81C
:100B70000404926C01F05DBCC1EBC10200EB820287
:100B8000D0F80404D2F8082201F0B2BC70B110B55C
:100B90000446032084F8BD03204600F013FD2046E0
:100BA00000F076FC002084F8BD0310BD01207047E2
:100BB000D0F8040401F0E6BC10B5044601F00F00C3
:100BC00001F070F95DBF002281F8FD2101F5FE7191
:100BD000012244BF81F83D203C31087094F8BC03E9
:100BE000012804BF022010BD01F027F902F064F8CB
:100BF00001F00DB9B0B5044601F00F0062689042F3
:100C000001D901251BE001F04DF95DBF002281F8FB
:100C1000FD2101F5FE71012244BF81F83D203C31E8
:100C20000870002594F8BC038D70012801D10225BD
:100C300005E001F002F902F0E3F984F8BC5328461C
:100C4000B0BDB0B5044601F00F0001F02BF95DBF57
:100C5000002581F8FD5101F5FE71012544BF81F8A1
:100C60003D503C318A60CB7008704A7802B1C88030
:100C7000022B04BF0020087194F8BC03012804BFB4
:100C80000220B0BD01F0D9F801F070FF002084F817
:100C9000BC03B0BDB0B501F00F04C4EBC40100EB60
:100CA00081050021C5E98431036985F8FD11C5F886
:100CB000082285F8FC4105F5FE71012B08BFC5F837
:100CC0000C22DAB2006814B102F0CEF901E002F0B1
:100CD000F5F80020B0BDB0B50446406801F00F053E
:100CE000854284BF0120B0BD080609D4C1EBC10014
:100CF000002104EB800080F8FD1100F5FE7108E092
:100D0000C5EBC500012104EB800080F83D1000F127
:100D10003C0194F8BC2301200D708870012A04BFA7
:100D20000220B0BD84F8BC03206802F081F92DB91F
:100D3000217C206804F5717202F036F9002084F8F5
:100D4000BC03B0BD70B501F00F040026C4EBC401B4
:100D500000EB8105294601F83C4FC1E90536012326
:100D6000CA604B700369012B08BFEA64DAB20068FD
:100D700014B102F079F901E002F0A0F8002070BD92
:100D80002DE9F04F87B081460068059002F065FAC2
:100D900010B107B0BDE8F08F01F080F80028F8D05E
:100DA00001F07CF80146D9F80000890703D54169B4
:100DB00001F00201416102F07CFA00030CD401F061
:100DC0006DF8400300F1C68001F068F8002800F1DA
:100DD0007881D9F800008FE1D9F8000002F048FAD4
:100DE000064609F5717009F5057A4FF0000B4FF4CE
:100DF00030680690002EE2D0F00700F0A3805FFA82
:100E00008BF5D9F80000294602F04BFA0746C007D7
:100E100055D00598012140448160D9F8000008EBC5
:100E20000004016CA068D9F81020012A23D1020720
:100E300031D4820641D410F0280F40D1D64A9142D5
:100E400001D9000436D45AE9040101444AF80C1CC3
:100E500021696FF3DF41401A2946CAF8000048466D
:100E6000FFF78AFEB8F5306F29D1D9F8100230BBF0
:100E700000F09BFF23E0C84A02F58072914205D141
:100E8000010417D4800644BF2020A06048462946AC
:100E9000FFF772FE13E0C04A914204D9000444BF38
:100EA0004FF40040A060484600F06EFB00F07DFF6C
:100EB000082003E04FF4004000E02020A060380745
:100EC00027D5D9F8001008EB01000C6C8168D9F81F
:100ED0001020012A03D1B04A944205D809E0AE4A55
:100EE00002F58072944204D1090444BF4FF40041DA
:100EF0008160484600F048FBA748844205D9D9F8EC
:100F00001000012801D100F050FF0598082140444D
:100F10008160F80603D50598102140448160B80629
:100F200009D5D9F81000012801D100F03EFF05983D
:100F3000202140448160B80404D505984FF4005145
:100F4000404481600AF11C0A08F1200876080BF180
:100F5000010B4FE7D9F8000002F083F9044609F5C8
:100F6000717000270190059800F510660296002C1C
:100F70003FF42AAFE00700F0A180D9F80000F9B2F1
:100F8000069102F07CF90546C0072CD0059A07F0BF
:100F90000F00012303FA00F0D2F8341821EA000010
:100FA000C2F8340806EB47108360D9F81000012816
:100FB00007D1C7EBC70009EB8000D0E9111211443B
:100FC000816406994846FFF7CEFD67B9D9F810004D
:100FD000012808D1D9F8500028B9D9F80000019AA1
:100FE000012101F0E1FF280742BF06EB471008216D
:100FF0008160E80642BF06EB471010218160680659
:1010000042BF06EB471040218160A80742BF06EBB4
:10101000471002218160280650D5C7EBC70009EBB5
:10102000800AD3465BF8501FD84658F8040F814217
:1010300044D304940C1A5AF8441FD9F800503A4685
:101040004F468C4288BF0C4605EB42110AF104065C
:10105000039201F5106915E03C7CDAF80030316844
:101060000094141A28469C4288BF1C46069AA3B2D4
:1010700002F0F2F9306820443060D8F800002044D3
:10108000C8F80000DBF80020D9F81830E11C9BB24A
:10109000B3EB910F28BF8242DED8B946049CDDE94C
:1010A000026782420AD807F00F00012101FA00F01E
:1010B000D5F8341821EA0000C5F83408640801376F
:1010C00055E70599D1F8040820F00100C1F804089B
:1010D00099F8F403012807D10020002189F8F403CE
:1010E0004846FFF717FD02E0484600F037FA00F0E7
:1010F000C7FE01F00041416102F0DBF8000502D4B7
:10110000D9F800000CE00598D0F80808C00702D014
:10111000484600F071FA00F0B3FE01F4006141614D
:1011200002F0C7F8C00402D4D9F8000052E0059CD0
:101130001021D4F8040820F00100C4F80408D9F8FC
:10114000000002F06BF8D9F8042004F5106104F5F2
:1011500000604FF67F337AB18B60013A0C6824F45B
:1011600000140C60C1F80832D1F8004224F40014D5
:10117000C1F800422031EEE7C16941F00111C161BF
:10118000D9F8301051B1D0F8841041F00B01C0F8FB
:10119000841000F1440108E00A30544F416942F2E2
:1011A0002B021143416100F110010A6842F00B0269
:1011B0000A6009F57172016821F4FE610160D9F8D5
:1011C000000099F8101001F0EFFE00F059FE01F454
:1011D0008051416102F06DF80146D9F800008904A0
:1011E00019D501F0FBFCD9F8000002F027F8D9F876
:1011F0000050C9F80C0000F029FB99F80C200146BA
:10120000284602F08FF8484600F096F900F038FEC4
:1012100001F40051416102F04CF80146D9F8000098
:10122000C9063FD5816921F0100181610598046AE2
:10123000C4F3434004F00F0506281CD002282BD12C
:1012400047F6F070044027D0C5EBC500220909EB32
:1012500080050598D5F8081202F02FF8D5F8080295
:10126000D5F8141200EB1410C5F8080201EB1410A5
:10127000C5F8140210E0059809F57171082202F012
:101280001CF8C5EBC500C4F30A1209EB8000D0F8C6
:1012900014121144C0F81412D9F80000816941F009
:1012A0001001816102F005F8000702D4D9F80000AE
:1012B00007E0484600F056F900F0E2FD01F00801B1
:1012C000416101F0F6FFC00202D4D9F8000008E045
:1012D0004846002100F037F800F0D2FD01F48011FB
:1012E000416101F0E6FF800202D4D9F8000008E075
:1012F0004846002100F02BF800F0C2FD01F4001177
:10130000416101F0D6FF400002D4D9F8000007E0A7
:101310004846FFF724FC00F0B3FD01F08041416135
:1013200001F0C7FF40077FF534ADD9F800004468ED
:10133000610704D54846FFF73BFCD9F80000416837
:101340002143416025E5D0F8040401F067B9D0F8E5
:10135000040401F065B92DE9F04F8BB0002800F0CE
:1013600087800446056890F8BD0328B9002084F8FA
:10137000BC03204600F0A4F8032084F8BD03E86B0A
:10138000C0055CBF00202061206801F091FD20684D
:1013900004F1140E04F1040B04F1240A9EE8C05079
:1013A0009BE80E089AE800070A90D4E90C50CDE9B2
:1013B00000B6CDE9085002A880E8805005A880E872
:1013C00000070A9801F026FC00284ED12068002171
:1013D000002501F07FFF616801200022D3B299420D
:1013E00010D9C3EBC30604EB860686F83C20A6F8AA
:1013F000423086F83D003565C6E9115586F83F5004
:101400000132EBE700200022D3B299420FD9C3EB9F
:10141000C30304EB830383F8FC21C3F81002C3E980
:10142000810083F8FF0183F8FD010132ECE7A06839
:1014300004F1140ED4E9033B04F1240A22689EE867
:10144000C0509AE800070A90D4E90C50CDE900B6E4
:10145000CDE9085002A880E8805005A880E8000780
:1014600010460A9A01F058FC38B1022084F8BD03F6
:10147000012528460BB0BDE8F08F0025012084F837
:10148000385084F8BD03206801F03DFCF1E700000E
:1014900080B50068B0F1A04F18BF80BD0748016853
:1014A00021F08001016023484FF4C051FFF738F963
:1014B0004320BDE88040FFF7E3BA00BF3438024064
:1014C000B0B586B00068B0F1A04F2FD10025184C00
:1014D0000095206840F001002060206800F00100C5
:1014E00000900A2005900320CDE9035002200290CD
:1014F0004FF4C0500190009801A90E48FFF77CF905
:1015000060680121002240F0800060600095606901
:1015100040F480406061606900F480400090009871
:101520004320FFF7C9FA4320FFF7BAFA06B0B0BD6F
:10153000303802400000024010B50446C06802285E
:1015400018BFFEF720FFD4F80404012101F0B9F818
:10155000D4F80404BDE8104001F079B8D0F80404D0
:1015600001F09DB8D0F8040401F09FB810B500F068
:1015700071FC04BF022010BD84F8381000F05DFC3F
:1015800001F0BFFE00F043BCD0F8042400F57171F7
:10159000104601F0A2B810B500F05CFC04BF0220B8
:1015A00010BD00F085FC06D1A169012903D0816B33
:1015B00041F48031816301F09DFB206801F01AFE47
:1015C00000F025BCB0B500F045FC01D1022510E0CB
:1015D0002068012584F8BC5301F06AFC206801F002
:1015E00019FF18B9206801F08EFB0025002084F84F
:1015F000BC032846B0BD000010B50446D0F8040472
:1016000001F0B1F82068D0F8001E41F00101C0F8E7
:10161000001E206A20B10348016841F00601016004
:1016200010BD00BF10ED00E0F8B50446006810F0F2
:10163000050F1ED03E4F0020824E3860FFF7BAF9EA
:1016400005463068000105D5FFF7B4F9401B0228B4
:10165000F7D92CE0221D07CA00F0C3FB054630680D
:10166000000105D4FFF7A6F9401B0228F7D91EE0B8
:101670002068810745D50020724E2E4F0090306CB7
:1016800040F080503064306C00F080500090009842
:10169000386840F480703860FFF78CF90546386888
:1016A000C00506D4FFF786F9401B0228F7D90320AE
:1016B000F8BD306F10F4407010D0216901F4407112
:1016C00088420BD0306F1C4901220A60002220F4AE
:1016D00040700A603067306FC0071AD120682169F6
:1016E000164AB3680A4001F4407523F4F8136FF307
:1016F0001F31B5F5407F08BF1343B360326F11430C
:101700003167000703D5207D0B49C1F8A0030020F5
:10171000F8BDFFF74FF9054641F28837306F800773
:10172000DCD4FFF747F9411B0320B942F6D9EFE7B4
:101730006800474200700040400E4742FFFCFF0F28
:101740002DE9F041002855D03E4B04468846D3F899
:10175000000400F00F00884204D283F8008400F0F7
:101760003AFB47D12068810711D5410703D5996815
:1017700041F4E0519960010703D5996841F4604153
:101780009960A1689A6822F0F00211439960C0073D
:1017900029D100F020FB04D983F8008400F01BFB62
:1017A00028D12068410705D5E1689A6822F4E05203
:1017B00011439960000706D52069996821F46041BA
:1017C00041EAC00098601C4600F046F8A1681E4A35
:1017D0000024C1F30311515CC8401E490860002079
:1017E000FFF710F907E06068811E022906D2196828
:1017F000890108D401242046BDE8F08101281CD1CC
:1018000019688903F6D599681D4621F0030108433C
:101810009860FFF7CFF8064641F288376068A968FC
:101820002B4601F00C01B1EB800FB2D0FFF7C2F8EC
:10183000801BB842F2D90324DDE719688907D9D59E
:10184000E1E700BF00380240003D000801480068A1
:10185000704700BF5800002010B5134C606800F0BE
:101860000C00082804D0042814BF1048104810BDEC
:10187000226820680023400202F03F020C485CBF4F
:1018800042F20040C0F2F4002168C1F38811A0FBCD
:101890000101FEF79DFC21680222C1F3014102EB28
:1018A0004101B0FBF1F010BD043802400024F40007
:1018B00040787D012DE9FC41B0B304460078AF4E7D
:1018C000C00709D0B06800F00C00042865D130686A
:1018D000800301D5606838B32078800716D5B068DA
:1018E00010F00C0F05D000F0ADFA6ED17068400218
:1018F0006BD43068800702D5E068012814D12069D4
:10190000316821F0F80141EAC0003060207800071A
:101910000DD4207840071DD4A769002F00F0038163
:1019200000F090FA40F082800120BDE8FC816169FE
:10193000934800296AD00121C0F8801EFFF73AF8C9
:101940000546706F8007E4D4FFF734F8401B022887
:10195000F7D9C7E0306C10F080580AD10020019010
:10196000306C40F080503064306C00F0805001905A
:101970000198844F3868C0053AD4386840F48070C4
:101980003860FFF717F805463868C00530D4FFF710
:1019900011F8401B0228F7D9A4E000F053FA03D154
:1019A000706840023FF593AF6068B0F5803F07D0A4
:1019B000B0F5A02F40F08080306840F48020306087
:1019C000306840F48030306080E0E06800284AD021
:1019D0006B4801210160FEF7EDFF05463068800786
:1019E0003FF58DAFFEF7E6FF401B0228F6D979E000
:1019F000A068012805D0052846D1306F40F00400CA
:101A00003067306F40F00100306747E00021C0F8D8
:101A1000801EFEF7CFFF0546706F80077FF579AF18
:101A2000FEF7C8FF401B0228F6D95BE054490020AE
:101A300088460866FEF7BEFF0546022F09D13068CA
:101A4000800152D5FEF7B6FF411B03200229F6D9CB
:101A500091E03068800166D5FEF7ACFF411B0320A2
:101A60000329F6D387E0464800210160FEF7A2FF74
:101A70000546306880077FF549AFFEF79BFF411BA5
:101A800003200229F5D976E0316F002821F0010109
:101A90003167316F21F00401316747D0FEF78AFFCB
:101AA000054641F28837306F80074ED4FEF782FF3B
:101AB000401BB842F7D915E03168002821F4803185
:101AC0003160316821F48021316047D0FEF772FF28
:101AD0000546306880033FF5FFAEFEF76BFF401B05
:101AE0006428F6D90320BDE8FC811C341FCC0843D0
:101AF000254940EA821001EBC33140EA04606FF3EC
:101B00000F01084370600120C8F86000FEF752FF23
:101B100004463068800106D4FEF74CFF011B032009
:101B20000229F6D927E00020BDE8FC81FEF742FF3C
:101B3000054641F28837306F800706D5FEF73AFF39
:101B4000411B0320B942F6D915E0B8F1000F7FF42C
:101B5000E3AE306C20F080503064DDE6FEF72AFF03
:101B60000546306880037FF5B7AEFEF723FF411BC3
:101B700003206429F5D9BDE8FC8100BF003802408C
:101B800000004742007000400000FFFF411E00209F
:101B9000B0EB116F1CBF01207047224AF023516047
:101BA00002490B70072190601160704723ED00E03F
:101BB000FEE7F0B55200002337240025AA4208BFF3
:101BC000F0BD070F04EB1076B0F1204F38BF07F1DE
:101BD00030064E5545F00106023500018B55EDE704
:101BE00018B54FF47A710091C168490616D44FF0C8
:101BF000FF310C4AC1600021C368009C7CB113F026
:101C000040030CD11368DB0302D5009B013B00931A
:101C1000C368009C002C08BF0121EEE70021C8B278
:101C200018BD00BF10E000E0B0B50446CA200D4664
:101C300000F01DF9012801D1012015E007CDA368AE
:101C400023F04003184347F6FF73A06020699843D0
:101C500010432061206920F4FE0040EA0140206129
:101C60006FF08000E0600020FF216162B0BD0000E5
:101C7000F0B587B000261E481E4C01224FF40055D7
:101C8000012706960196016841F004010160016890
:101C900001F00401019101990196016841F0800170
:101CA0000160016801F080010191019901960168CC
:101CB00041F0010101604FF40051006800F00100A3
:101CC000019001982046FEF767FECDE90466CDE954
:101CD000025702AD20462946FEF78EFDA4F50060AE
:101CE00029460497CDE90276FEF786FD07B0F0BDE0
:101CF0003038024000080240BFB50D480D4DFF24AA
:101D0000016841F4004101607F20039402900020AB
:101D10000190A5F1100001A9FFF786FF286840F4A3
:101D2000FE002860286864F30E002860BFBD00BF75
:101D3000703802401028004080B50F480F4900223B
:101D400000F050FB08B1FEF71EFB0B480C4900F0F9
:101D500027FD08B1FEF717FB07480A4900F0B5F95F
:101D600008B1FEF710FB044800F02EFD18B1BDE8E5
:101D70008040FEF708BB80BD080400203C00002026
:101D80005C00002030010020FEE770470148FEF7AC
:101D9000F7BF00BFA406002020464FF400510122E7
:101DA000FEF7FABD214600F0F1BAD9F80000069A14
:101DB000012101F0F9B804FA03F3D0F83C489C4340
:101DC000C0F83C48D0F81C4824EA0303C0F81C388B
:101DD00000EB42107047D3F8000400F00F004045BC
:101DE000704740EA811040EA0270C6F88400012082
:101DF0003860FEF7DFBD4CF25030FEF79BBBD4F8E5
:101E00008812207C704728460121FEF7B9BD0020CA
:101E100084F8BC0310BD00F01F010122400902FA42
:101E200001F17047D4F88C02294682682046104799
:101E300020464FF40051FEF7A8BD012084F8BC03F2
:101E400020687047B06800F00C00082870472046F2
:101E500000F0D7B9044690F8BC030128704704FA93
:101E600003F3D0F81C482343C0F81C387047606265
:101E7000532060622046FFF7B3BE204600F0F1B960
:101E8000D9F8000041697047C0F804180320FEF734
:101E90008FBB94F87402013802287047D9F800000B
:101EA00001F007BA0906C0EBC00104EB81017047DD
:101EB0000121206884F8BC13A16A0129704770478A
:101EC0007047FEF77BBD0000F0B599B000261421E5
:101ED0001296CDE9106608AD2846FEF7C3F902ACAC
:101EE00018212046FEF7BEF9214801960227016815
:101EF00041F080510160006800F08050019001982D
:101F000001961C48016841F440410160006800F4FA
:101F100040400190072013971890042017904FF429
:101F2000A8701690192015904FF48000149001208D
:101F30000F904FF480300E9005200D9001980DA861
:101F4000FFF7B8FC4FF4805002210C96CDE90976DA
:101F50000B900F2008902846FFF7F2FB4FF480709B
:101F6000029706902046FFF75FFB19B0F0BD00BF57
:101F7000403802400070004010B50E480F4CD0F8B9
:101F8000801041F47001C0F880100B490A6842F0DB
:101F900001020A6000228A600B6823400B60084B34
:101FA0004B600B6823F480230B60CA604FF0006124
:101FB000016010BD08ED00E000380240FFFFF6FEB2
:101FC00010300024D0F89002002180F8501000203A
:101FD0007047B0B5D0E9A452044628786978D26831
:101FE0009047204601212A46402300F027FB00208D
:101FF000B0BDB0B58121044600F012FA002520469C
:102000000121E56200F00CFAD4F89002C4F85851AE
:1020100048B1D4F8940280688047D4F8900201F067
:1020200011FEC4F890520020B0BD10B5D0F8904217
:10203000E16C012908D1D0F8940222786178C36854
:10204000104698470020E064002010BD0A2101805E
:1020500000487047F800002029210180004870479F
:10206000940000202921018000487047C000002012
:1020700029210180004870470401002070B58121AA
:1020800003224023054600F0CDFA01242846012111
:1020900003224023EC6200F0C5FA5420C5F85841F1
:1020A00001F0F8FDC5F8900268B10024064680F8FA
:1020B0005040D5F8940240688047284601213246B6
:1020C000402300F0BBFA204670BD19B1C0F894124D
:1020D0000020704702207047B0B513460A4690F8BA
:1020E000741203290AD1D0F89042012194F850507B
:1020F0002DB984F85010812100F03EFB00210846E4
:10210000B0BD00001CB50022D0F89032ADF806201A
:102110000A7812F060020FD0202A38D14A78023AA9
:10212000092A34D8DFE802F0053E3333333333373E
:10213000454803F1440137E04A780B2A0CD0062ABF
:1021400011D00A2A1CD012BB90F87422032A1ED187
:102150000DF10601022228E090F87422032A16D11C
:102160008878986423E0CA78212A28D0222A2CD1A2
:10217000CA88142A28BF1422D0F89412096814E0DF
:1021800090F87422032A02D103F148010CE000F018
:1021900038F802201CBD0122DA64CA88194600F012
:1021A0003BF804E003F14001012200F04DF800206B
:1021B0001CBDC8785864FAE788781864F7E7CA88BD
:1021C0000349092A28BF0922EFE700220021ECE792
:1021D000EC00002080B5D0F88C2252689047002097
:1021E00080BD80B513460A46002100F027FA002082
:1021F00080BD80B513460A46002100F0BDFA0020DC
:1022000080BD10B58021044600F092FA20460021DE
:10221000BDE8104000F08CBA80B513460A46032191
:10222000C0F86C120021C0E9523300F007FA002018
:1022300080BD80B5052100220023C0F86C1200216A
:1022400000F0FCF9002080BD80B513460A4602214B
:10225000C0F86C120021C0E9073300F08DFA0020AD
:1022600080BD80B5042100220023C0F86C1200213B
:1022700000F082FA002080BD10B50446012084F8E9
:102280007402D4F88C022179426820469047204697
:1022900000F060FA204600F06AF9002010BD00004E
:1022A00010B52C4C0A4602A0FFF77CFD204610BD5D
:1022B00053544D33322048494420426F6F746C6F41
:1022C0006164657220436F6E666967001220088042
:1022D000004870474001002010B51E4C0A4602A07D
:1022E000FFF760FD204610BD53544D33322048495E
:1022F0004420426F6F746C6F6164657220496E7424
:1023000065726661636500000420088000487047BC
:102310005401002010B50F4C0A4602A0FFF742FD01
:10232000204610BD4B6C69707065720010B5094C89
:102330000A4602A0FFF736FD204610BD53544D3328
:10234000322048494420426F6F746C6F616465723B
:1023500000000000C8010020B0B51A20088009491B
:1023600008688A6880180BD0074D4C680822A91CA1
:10237000FFF71FFC05F1120120460422FFF719FCAC
:102380000148B0BD107AFF1F58010020B0B5D8B188
:1023900000230446257815B101340133FAE7DCB295
:1023A000022303EB440414800C70032201240A5519
:1023B00002784AB1DCB29D1C01300A5543F001029B
:1023C0002B46D4B20022F2E7B0BD0000032884BF40
:1023D000022070470249C00021FA00F0C0B27047E5
:1023E0000002010288B180B5D0F88C3213B100230D
:1023F000C0F88C3209B1C0F888120121027080F84F
:10240000741200F0CBF8002080BD0220704780B528
:10241000D0F89802FEF7EEFBBDE88040FFF7D6BF8C
:1024200080B5D0F89802FEF7C7FBBDE88040FFF703
:10243000CDBFB0B5044669B1D4F88C0242693AB157
:1024400094F87402032803D120469047002027E027
:102450000220B0BDD4F86C02B0B1042814D0022818
:1024600016D1D4E9081081421BD9081A114683B24B
:10247000206220461A46FFF7BCFE204600210022BB
:10248000002300F0DBF803E02046802100F050F943
:1024900094F878120020012904BF84F87802B0BDB6
:1024A000B0BDE169B1FBF0F202FB101272B98142DA
:1024B0000CD3D4F87002814208D2204600210022B9
:1024C0000025FFF796FEC4F87052D6E7D4F88C02C8
:1024D000C16829B194F87402032801D120468847C5
:1024E0002046802100F024F92046FFF7A2FECFE726
:1024F000B0B5044661B1D4F88C02826932B194F867
:102500007402032802D1204690472DE002252CE0DA
:10251000D4F86C020025052812D0032825D1D4E96F
:102520005310814213D9091AC4F84C11814238BFA3
:10253000084683B2114620461A46FFF752FE13E0C2
:1025400020460021C4F86C5200F0F2F80DE0D4F8F7
:102550008C02016929B194F87402032801D1204644
:1025600088472046FFF77DFE00252846B0BD80B590
:10257000D0F89802FEF70AFBBDE88040FFF726BFBF
:102580000020704780B5D0F88C22012180F87412A9
:10259000017952689047002080BD000010B5017895
:1025A00041BB15490222C0F89812C1F8040400206A
:1025B000C1E90B00C1E90620C1E90320C1E9080017
:1025C00004204FF0A042C1E900200846FEF7C3FEF8
:1025D00008B1FDF7D8FE084C80212046FEF79BFA93
:1025E000204600214022FEF79AFA2046012180224F
:1025F000FEF795FA002010BDA406002001F07F022E
:10260000D0F898020906C2EBC20200EB820000F18A
:102610003E0258BF00F5FF721078704700207047E7
:102620000020704710B51446D0F898021A46234689
:10263000FEF707FBBDE81040FFF7C8BE80B5D0F835
:102640009802FEF727FBBDE88040FFF7BFBEF8B554
:10265000002100224023044600254026FFF7E2FF28
:1026600001272046802100224023C4F85061C4F88D
:102670004471FFF7D7FFD4F8900284F87472666251
:10268000A761C4F86C52C4F87C52656028B1D4F8D4
:102690008C0200214268204690470020F8BD90F847
:1026A000751280F874120020704780B590F874128B
:1026B000032904D1D0F88C12C96901B188470020E0
:1026C00080BD01740020704780B5D0F89802FEF7F5
:1026D0004DFFBDE88040FFF779BEB0B500F520752D
:1026E0000446284600F051F8B4F886120120C4E9E7
:1026F0009B0194F8800200F01F01022907D00129F4
:102700000AD071B92046294600F064F80EE0204650
:10271000294600F079F909E02046294600F007FA39
:1027200004E000F08001204600F002F80020B0BD77
:1027300080B5D0F89802FEF7CEFABDE88040FFF7EA
:1027400045BE80B5D0F89802FEF725FFBDE8804071
:10275000FFF73CBE80B5D0F89802FEF733FFBDE826
:102760008040FFF733BE90F8741280F87512042190
:1027700080F874120020704780B5D0F89802FEF7F8
:10278000E1FABDE88040FFF721BE0A7802704A787E
:1027900042704A8842808A888280C988C180704796
:1027A00019B1C0F88C12002070470220704780B524
:1027B000D0F88C2232B112689047002818BF01204F
:1027C000400080BD022080BD80B5FFF7BAFF002029
:1027D00080BD0000BCB5044608780D4610F06000CE
:1027E00007D0402802D0202840F0C880FFF71AFB0D
:1027F000C6E06878092800F2C180DFE800F005191A
:10280000BF23BF4D6DBF2B39FFF743FB00F2B680EE
:10281000E888022840F0B280D4F87C0203222146E6
:10282000002808BF012241F80C2F204602226DE04B
:10283000FFF72FFB00F2A2806888012840F0A080FB
:10284000002004E06888012840F09A800120C4F844
:102850007C02C0E0E888012840F0908094F874027F
:10286000411E02294DD20020214641F8080F4BE0BD
:102870006888644DC1B22870022980F07F8094F886
:102880007402032845D0022860D1002900F0A380FB
:10289000032084F8740246E0A888002840F06E8087
:1028A000E888002840F06A8068887F2800F2668007
:1028B00094F87412032961D0C5B284F876022046D8
:1028C0002946FFF701FFFFF7D8FA002D0CBF0120C2
:1028D000022084F8740253E068884FF0FF3101EB66
:1028E000102106294AD8DFE801F004382549493E7D
:1028F0004700FFF784FA0A680DF106019047014688
:1029000059E003283AD1211D20460122FFF79CFC03
:1029100036E0002936D0606801285CD0C1B220467C
:10292000FFF758FC297820466160FFF740FF022836
:1029300024D050E0C0B2052820D8DFE800F0034FD3
:1029400053575B5FFFF75BFA4A68D5E7FFF77FFAFB
:1029500029782046FFF73EFC12E0217CD4F88C0257
:10296000C9B1C16A18E0207C40B9D4F88C02416B2F
:102970000DF106008847C2E7207C98B1FFF767FA9F
:102980000020BCBD00206060022084F87402204654
:10299000FFF720FC1FE0816A0DF106008847014621
:1029A000022007E0D4F88C02016B0DF10600884785
:1029B000014607204870BDF8060048B1EA883AB1E0
:1029C000904238BF02462046ADF80620FFF73CFC97
:1029D000E8880028D4D1FFF750FAD1E7FFF70FFAC3
:1029E0008A6889E7FFF70BFACA6885E7FFF707FAF5
:1029F0000A6981E7FFF703FA4A697DE7FFF7FFF904
:102A00008A6979E7C4010020B0B5044608780A460F
:102A100010F060000AD0402801D020286BD1D4F8F3
:102A20008C02114683682046984766E050781179F9
:102A3000A8B101282ED003285DD194F87402032890
:102A40002CD15088002862D141F0800080285ED0CF
:102A5000D08800285BD12046FFF76AFE57E094F843
:102A60007402032828D0022845D141F08000802834
:102A700041D101F07F00090600EB800004EB8000EB
:102A800000F1140258BF00F5A0720020114610603A
:102A9000204648E094F87402032830D002282AD156
:102AA00041F08000802826D02046FFF741FE2046D6
:102AB0008021FFF73DFE20E001F00F0211F08000C1
:102AC00002EB820204EB820214BF9269D2F8442125
:102AD0008AB101F07F02002841F0800002EB8202FF
:102AE00004EB820202F1140508BF02F5A0758028EC
:102AF00010D1002014E0FFF7AAF90020B0BD5088E3
:102B00000028FAD1480602D02046FFF780FCFFF7E4
:102B1000B4F9F2E72046FFF771FD0028E9D0012063
:102B20002860204629460222FFF78EFBE5E7B0B574
:102B3000044608780D4610F0600018BF40280ED1FA
:102B4000FFF7A7F90DD8A88810F0FE0F09D1FFF7FD
:102B500069F940B9E88830B9FFF78FF903E0202818
:102B6000EED0FFF774F90020B0BD0000B0B50A78D0
:102B70004C7802F00F03012C16D10124FFF76FF9F6
:102B8000530100F51060C458240422D41C588D68E9
:102B9000C9786FF3DF2545EA8252224342EA814138
:102BA0000D4A1143195014E04FF480345201FFF7DD
:102BB00056F900F5306083581B040AD413588C680A
:102BC000C9786FF3DF24234343EA8141024B194361
:102BD00011500020B0BD00BF00800010D0F80019D7
:102BE00040F2FF729143C0F80019D0F8081801F0C4
:102BF0000601042905D1D0F8001941F00301C0F8FD
:102C00000019D0F8041841F48071C0F804180020AD
:102C10007047000070B504460698049D012816D13F
:102C2000A16B184A0D9821F48031A163E16811402D
:102C3000E1600128E16821F44011E16003D1E0681E
:102C400040F48010E060204600F01EF80FE0E068DD
:102C50000A9E40F04000E060204600F015F8A16BAD
:102C600016B121F4803101E041F48031A163012DDE
:102C700007D1A16841F00601A160A16841F02001DF
:102C8000A16070BDBFFFBDFF0A490A46013A0FD0DF
:102C90000369B3F1FF3FF9DC026942F0010202610E
:102CA000013905D00269D20704BF00207047F7E759
:102CB00003207047410D030010B50A784C780C4989
:102CC00002F00F03012C05D10124FFF774F800F581
:102CD000106007E04FF4803401F17071FFF76BF87A
:102CE00000F53060026811400160002010BD00BF97
:102CF000007833EC80B5D0F8041821F00201FFF71A
:102D0000C3F8002080BD80B5D0F8041841F002015E
:102D1000FFF7BAF8002080BD2DE9F84F8046DDF8B6
:102D200044A0DDE90C09DDF828B00D464121002260
:102D3000502903D048F821200131F9E7BAF1000FFA
:102D40000AD0D8F8001021F40011C8F80010D8F803
:102D5000381041F400210FE0D8F8381041F4001188
:102D6000C8F83810D8F8381021F40021C8F8381005
:102D7000D8F8381021F48021C8F838100021C8F89C
:102D8000001E0128D8F80018C8F8001806D1D8F895
:102D90000008002B18BF40F0010003E0D8F800083D
:102DA00040F00300C8F800084046102100F036FA51
:102DB0000090404600F024FA002108F510624FF61A
:102DC0007F330027C8F81018C8F81418C8F81C1862
:102DD000BD420ED04FF09046002F08BF4FF0006666
:102DE0001468013706EAE4741460116193602032BC
:102DF000EEE708F5306100224FF67F330027BD4231
:102E00000ED04FF09044002F08BF4FF000640E68C2
:102E1000013704EAE6740C600A618B602031EEE74A
:102E2000D8F81018BBF1010F21F48071C8F8101800
:102E300008D11B491B4AC8F83018D8F8301811437C
:102E4000C8F830180021C8F818106FF08041BBF1A5
:102E5000000FC8F8141005D1D8F8181041F010016F
:102E6000C8F81810D8F818100F4A1143B9F1000F1C
:102E7000C8F8181005D0D8F8181041F00801C8F8A3
:102E80001810BAF1010F05D1D8F81810074A1143EC
:102E9000C8F818100099084318BF0120BDE8F88F42
:102EA000000180000300010000383C800400004065
:102EB000816821F00101816000207047F0B54B78F6
:102EC00091F800C0012B20D100EB4C15344CD5F803
:102ED00010794E6905F51063A646324CC6B32740FB
:102EE00074461F611F6907EA0E071F618F68BE42A3
:102EF00084BF4F613E461F6947F400271F6104F1FC
:102F000000571C69374027432DE000EB4C10244C40
:102F1000D0F8103B6FF31203C0F8103BD0F8103B11
:102F20006FF3DC43C0F8103B00F530634D698868EF
:102F300005B148611D6904F10054204045F40025A5
:102F40001D611C692043012A186112D1C8680EE076
:102F500007EA0E061E611E6946F400261E611E6900
:102F600006EA04070026012A1F6109D1086900B199
:102F700058614FF004411868084318600020F0BD04
:102F8000D5F80019002E41F00441C5F80019F5D01C
:102F90000CF00F01012200F6340302FA01F1EAE716
:102FA000FFFF07E00000F8FF10B5036C134CA342CD
:102FB00003D3D0F8003B002B1ED40023C0F8103BF5
:102FC0000129D0F8103B43F40023C0F8103BD0F89F
:102FD000103B43F01803C0F8103BD0F8103B43F00F
:102FE000C043C0F8103B07D1C0F8142BD0F8001B29
:102FF00041F08021C0F8001B002010BD0B30544F61
:103000000A784B785201012B14BF00F5306000F5AF
:103010001060835823F400138350C97801F0FE0137
:10302000022903D1115841F08051115000207047FE
:103030000A78497800EB4210012919BFD0F8001B2B
:1030400000F53060D0F8001900F510602AB10029B1
:1030500003D4016821F080410160016841F400114E
:103060000160002070470000F8B54B780C78012B08
:103070002ED100EB4416D6F81079D1F814C006F51D
:103080001063BCF1000F46D06FF312071F611F6978
:103090006FF3DC471F618F680CEB0705013DB5FB43
:1030A000F7F5534F07EAC5451F693D431D61654666
:1030B0001F696FF3DF453D431D61CD78012D35D18B
:1030C0001D6925F0C0451D611D6945F000572CE0C4
:1030D00000EB4413D3F8104B6FF31204C3F8104BFA
:1030E000D3F8104B6FF3DC44C3F8104B03F5306397
:1030F0004D698C68002D4AD025443D4E1F69013D25
:10310000B5FBF4F506EAC546ADB26C433E436FF33A
:10311000DF441E6142E06FF3DC471F611F6947F423
:1031200000271F611F696FF312071F61012A11D168
:103130000A690AB1C6F81429C978012944D1D0F81E
:103140000818D6F80009C9054CBF40F0805040F07F
:10315000005038E0630100F51066F55845F004456D
:10316000F550CD78012D35D1D0F808589F59ED058F
:103170004FF0805558BF4FF000553D439D511FFA09
:103180008CF3C9680092224600F066F920E01D69C0
:103190006FF3DF442C431C614FF400241D692C4362
:1031A000012A1C6102D1CA6802B15A61C978012999
:1031B0000AD1D0F80808C0054FF0805058BF4FF032
:1031C0000050196808431860186840F004401860FF
:1031D0000020F8BDBCF1000FFAD004F00F0101226D
:1031E00002FA01F1D0F834281143C0F83418EFE79F
:1031F0000000F81F816841F00101816000207047E4
:10320000102101610C49013904BF03207047026994
:10321000D2065CBF00207047F5E700BF890120316E
:1032200001610549013904BF032070470269920614
:103230005CBF00207047F5E7410D0300D0F8080897
:1032400010F0060004BF00207047062803D00228B3
:103250001CBF0F20704702207047406900F001003A
:103260007047D0F81818D0F81C08084080B2704792
:10327000D0F81818D0F81C080840000C704710B59A
:10328000D0F81028D0F8344801F00F0300EB4110BB
:10329000D0F8080924FA03F3DB01DBB21A4310402B
:1032A00010BD00EB4111D1F8081BD0F814080840FC
:1032B0007047416980690840704710B503324FF488
:1032C0008053920822B1C458013A41F8044BF9E7FF
:1032D000084610BD80B5C268012922F0C042C26014
:1032E00003D061B94FF0804101E04FF00051C26856
:1032F0001143C1603220FDF75BF9002080BD012041
:1033000080BDD0F8002801F07F0122F4FE62C0F8F1
:103310000028D0F8002842EA0111C0F80018002067
:1033200070470000022A34D1284A294B0A449A42A5
:1033300002D24FF470512EE0264A274B0A449A429B
:1033400002D24FF4605126E0244A254B0A449A42A7
:1033500002D24FF450511EE0224A234B0A449A42B3
:1033600002D24FF4405116E0204A214B0A449A42BF
:1033700002D24FF430510EE01E4A1F4B0A449A42CB
:1033800002D24FF4205106E01C4A1D4B0A449A42D7
:103390000AD24FF41051C26822F47052C260C2685F
:1033A0001143C16000207047164A174B0A449A42E5
:1033B00002D24FF40051EEE7144A154B0A444FF481
:1033C000C0519A4238BF4FF4E051E4E7405327FF21
:1033D00000350C00401E1BFF40420F0000DC0BFFBD
:1033E000804F1200808CF9FE20D6130060B6E5FEF7
:1033F00060E3160000D3CEFE40771B00C05BB3FE37
:10340000C091210000CA91FE20753800E05459FE99
:10341000E09C410010B504460E484FF67F3130B1B4
:1034200022182030C2F8E81AC2F8E81CF7E700209A
:10343000C4F81008C4F81408C4F81C082046FFF7A4
:10344000DFFE00B110BD20461021BDE81040FFF79F
:10345000E5BE00BF20FEFFFF10B5029C0CB10020AE
:1034600010BD0333120300F580509B08002BF6D0EB
:1034700051F8044B013B1450F8E7FEE710B5074C38
:1034800000F00F03B0F1FF3F034A2344C8BF831885
:103490000801187010BD00BF00E400E014ED00E06A
:1034A0000648BFF34F8F064A016801F4E0611143FB
:1034B0000160BFF34F8F00BFFDE700BF0CED00E0E0
:1034C0000400FA05F8B5FDF717F9274C2B4E002537
:1034D0000020C7B20B2F0DD8BA593859904207D0E7
:1034E000013004D1391902200023FDF7C3F801355A
:1034F000381DEEE7FDF7B6F828060BD01B4800F59F
:10350000CC3420464FF40051FDF73FFAC820FDF7B8
:103510004FF8F6E7164D174F144E01212868386012
:1035200006F5C830FDF72CFA40B1386844F24C215A
:10353000884203D004F10C0000F022F800200E496C
:1035400000900A6842F080520A60096801F08051D8
:1035500000910099316841F48071316028603068D1
:1035600020F480703060F8BDF43F00080070004027
:1035700060280040CC0E002040380240107AFF1F27
:103580000168054A1140B1F1005F18BF70474168FA
:10359000006880F3088808470000F82F2DE9F04FF5
:1035A00087B0DFF8ECA19AF80000012840F07E8097
:1035B000DFF8E09100215046072200F8041B09F1D2
:1035C0000801FCF75AFE002847D0BAF80200724FF3
:1035D0000AF1040140223844FCF72BFEBAF802003D
:1035E0004030AAF80200BAF80200B0F5806F5DD151
:1035F0006A48D9F804604FF4005101224FF00108E5
:103600008346FDF7C9F9B402FDF776F8A6F110007C
:103610004FEA3010042801D370060FD1B9F800002A
:10362000411CCDE90408A9F80010022106910021EF
:10363000CDE9021802A801A9FCF7CCFF04F100644F
:1036400000260025B6EB952F1AD17A596119022070
:103650000023FDF70FF80435F4E79AF80B0004286F
:1036600024D8DFE800F0032634234F001020C9F8E7
:1036700004000120A9F800000020AAF8020015E0CB
:1036800058464FF4005100220024FDF785F9FCF75D
:10369000E9FFD9F8040009F10F0108220130C9F847
:1036A00004003F48AAF80240FEF716FD07B0BDE847
:1036B000F08F0A20FCF77CFF3948FEF7DDFD0A2079
:1036C000FCF776FF07B0BDE8F04FFDF721BAD9F857
:1036D0000800D9F80B10334CC4F803102060FDF734
:1036E00061F90346304834A138A200880090E01DFB
:1036F00000F01EF92A482146402207B0BDE8F04FED
:10370000FEF7EABCD9F80800D9F80B10DFF894806E
:1037100001270597CDE90377C8F80310C8F8000022
:1037200002200690002002901F480488FCF7E4FF66
:103730001E4810250DF108090DF1040AAEB2A6428B
:1037400017D20068013014D048465146FCF742FFBA
:10375000013705F18001B8B2402E049008BF8021E6
:1037600038BF05F1100188B20D46800200F10060FB
:10377000E4E7FCF777FF6FF00F000DA110FA85F278
:1037800008F1070000F0D4F80548414640228BE7D5
:103790008001002008000020CC0A00200008024020
:1037A00008040020C8030020227AFF1F0040000800
:1037B00025644B42000000002573203078255820F6
:1037C000524F4D3A2025644B4200000056312E31B5
:1037D00000000000FDF7FCF8FEF776FBFEF748FA64
:1037E0000120FCF7E5FEFFF76DFE4C4CA4F50065EB
:1037F000FEF709FB28B9FEF71BFB3C20FCF7D8FEBF
:10380000F6E7FEF7C9FAFEF777FAFEF795FADFF862
:1038100010814FF0780A4FF00109FFF7BFFEFDF766
:10382000C9F8B84234D05FFA89FBFDF7C3F8074600
:10383000BBF1010F2CD198F80010B8F8020039B193
:10384000013881B2A8F802006E290BD8002107E0E8
:10385000013081B2A8F80200B1F5966F02D30121C0
:1038600088F8001080B298F80110B0FBFAF04A1CFA
:10387000142988BF0022C0B2D1B288F80120814249
:1038800020464FF4005134BF00220122FDF784F896
:10389000FDF790F8801B3228BFD3FDF78BF8064662
:1038A000FEF7B1FAC8B1FEF7AEFA1E4909788842B0
:1038B000B3D0FEF7A8FA1B490870D8F8040007280F
:1038C00007D8FEF769FA5FFA89F0B0FA80F04FEA9C
:1038D00050190020C8F804009FE712480021017029
:1038E000D8F8040001300D28C8F8040095D3FEF77D
:1038F0008AFA28B9FEF79CFA6420FCF759FEF6E72D
:103900000948FEF7B9FCFEF747FA0A20FCF750FE1B
:10391000FCF738FE0548FFF733FE7EE7000802405B
:103920007801002072010020080400200000FF1F21
:103930000FB4084B10B504A902AA039800F01CF8B4
:10394000044602A9002000F077F9204610BC5DF87B
:1039500014FB0000393C000802E008C8121F08C12F
:10396000002AFAD170477047002001E001C1121F00
:10397000002AFBD1704700002DE9FF4F8DB09B4618
:103980000F460446002606E025280BD05A460F991C
:103990009047641C761C20780028F5D111B0304681
:1039A000BDE8F08F0025A8460122984900E00543B4
:1039B00014F8013F203B02FA03F00842F7D12078C7
:1039C0002E2817D114F8010F45F004052A280ED02F
:1039D0006FF02F022078A0F1300109290AD808EBF6
:1039E000880102EB410100EB0108641CF2E757F883
:1039F000048B641C20786C280DD004DC4C2812D079
:103A00006A2811D104E074280DD07A280CD10AE07C
:103A100045F4001507E0617845F48015814202D134
:103A2000641C05F58015641C2278692A45D008DCE1
:103A3000002AB3D0582A69D0632A10D0642A08D14A
:103A40003BE0702A67D0732A13D0752A5CD0782A9D
:103A50005CD010465A460F999047761CD3E017F871
:103A6000040B8DF8000000208DF80100E9460120CC
:103A700003E057F8049B4FF0FF3069074FF0000553
:103A800001D40AE06D1C45450DDA8542FADB19F8D0
:103A900005100029F6D106E06D1C8542FCDB19F803
:103AA00005100029F8D12E4404E019F8010B5A46FC
:103AB0000F9990476D1EF8D2A5E00A200021CDE9AC
:103AC0000801C5F3025002280DD001CFC117031E13
:103AD00071F100030DDA4FF0000CD0EB0C006CEB31
:103AE00001012D2308E0FF1D27F00707F7E8020179
:103AF000EDE72B0504D52B238DF8283001233BE07F
:103B0000EB0739D02023F7E70A2000E0102000213E
:103B1000CDE9080107E01020002145F00405CDE9BA
:103B200008014FF00808C5F3025002280FD001CF5A
:103B300000214FF0000A2B071FD5702A0DD0DDE9B8
:103B400008C38CF0100C5CEA030C0CD015E0FF1DD0
:103B500027F00707F7E80201EBE740228DF828205D
:103B60004FF0010A0BE050EA010306D030238DF834
:103B700028308DF8292002239A46582A04D024A2FE
:103B80000DF120090B9209E026A2F9E7DDE90823EF
:103B9000FCF71EFB0B9B9B5C09F8013D50EA010200
:103BA000F4D1ADEB090020300890680701D44FF044
:103BB00001080899884502DDA8EB010000E000201B
:103BC0008046002506E00AA85A46405D0F999047B6
:103BD0006D1C761C5545F6DB04E030205A460F99E3
:103BE0009047761CB8F10001A8F10108F5DC05E06A
:103BF00019F8010B5A460F999047761C0899481EF0
:103C000008900029F4DC641CC5E6000009280100C6
:103C10003031323334353637383961626364656642
:103C20000000000030313233343536373839414204
:103C300043444546000000000A68531C0B601070A6
:103C40007047000010B5002821D0114B0022001F42
:103C5000196803E0814203D80A4649680029F9D16E
:103C600052B11368841A9C4204D100681844106051
:103C7000104602E0506000E0186039B102680B1A8B
:103C8000934203D10B681A4402604968416010BD39
:103C900000000020F0B50B30154D20F00701002486
:103CA000144A0FE003688B420BD38B4205D95E1A8E
:103CB00043184768C3E9006700E04368136002C027
:103CC00004E0021D10680028ECD12046002802D133
:103CD000286808B10020F0BD064A07481060074A6E
:103CE000121A22F00702C0E9002401202860D7E759
:103CF0000400002000000020DC0E0020D816002068
:103D0000000000000000000001020304060708098B
:103D1000303D00080000002078010000F802000893
:103D2000F03D0008780100206019000068390008A3
:103D30008132013210580842544C44434D44077AB2
:103D40000218120613FF092809A101750895409170
:103D50000306168103C0CD22140809231B0815048D
:103D60001A2D041A59041AA1141AD904111324F48F
:103D7000137D201408F31F1C08052110311A2B1085
:103D80001AC5101AD304C11A65181A59041A7104F5
:103D90001A4D041409022913010125C03209043304
:103DA00002031509211101140122141607058103CC
:103DB000402D0107050107291A092A2C691A311318
:103DC0000A0632020A2E40442228142055031B08FA
:103DD00051041A59044B120148150912BABE1D03A9
:103DE000010203252E040309041A4701152946215F
:040000050800019955
:00000001FF
